{
  "contractName": "Oracle",
  "abi": [
    {
      "inputs": [],
      "stateMutability": "nonpayable",
      "type": "constructor"
    },
    {
      "anonymous": false,
      "inputs": [
        {
          "indexed": true,
          "internalType": "address",
          "name": "previousOwner",
          "type": "address"
        },
        {
          "indexed": true,
          "internalType": "address",
          "name": "newOwner",
          "type": "address"
        }
      ],
      "name": "OwnershipTransferred",
      "type": "event"
    },
    {
      "anonymous": false,
      "inputs": [
        {
          "indexed": false,
          "internalType": "string",
          "name": "symbol",
          "type": "string"
        },
        {
          "indexed": false,
          "internalType": "uint256",
          "name": "oldPrice",
          "type": "uint256"
        },
        {
          "indexed": false,
          "internalType": "uint256",
          "name": "newPrice",
          "type": "uint256"
        },
        {
          "indexed": false,
          "internalType": "uint256",
          "name": "blockTimestampLast",
          "type": "uint256"
        }
      ],
      "name": "PricePosted",
      "type": "event"
    },
    {
      "inputs": [],
      "name": "operator",
      "outputs": [
        {
          "internalType": "address",
          "name": "",
          "type": "address"
        }
      ],
      "stateMutability": "view",
      "type": "function",
      "constant": true
    },
    {
      "inputs": [],
      "name": "owner",
      "outputs": [
        {
          "internalType": "address",
          "name": "",
          "type": "address"
        }
      ],
      "stateMutability": "view",
      "type": "function",
      "constant": true
    },
    {
      "inputs": [
        {
          "internalType": "string",
          "name": "",
          "type": "string"
        }
      ],
      "name": "prices",
      "outputs": [
        {
          "internalType": "uint256",
          "name": "price",
          "type": "uint256"
        },
        {
          "internalType": "uint256",
          "name": "blockTimestampLast",
          "type": "uint256"
        }
      ],
      "stateMutability": "view",
      "type": "function",
      "constant": true
    },
    {
      "inputs": [],
      "name": "renounceOwnership",
      "outputs": [],
      "stateMutability": "nonpayable",
      "type": "function"
    },
    {
      "inputs": [
        {
          "internalType": "address",
          "name": "newOwner",
          "type": "address"
        }
      ],
      "name": "transferOwnership",
      "outputs": [],
      "stateMutability": "nonpayable",
      "type": "function"
    },
    {
      "inputs": [
        {
          "internalType": "address",
          "name": "_operator",
          "type": "address"
        }
      ],
      "name": "setOperator",
      "outputs": [],
      "stateMutability": "nonpayable",
      "type": "function"
    },
    {
      "inputs": [
        {
          "internalType": "string",
          "name": "_symbol",
          "type": "string"
        },
        {
          "internalType": "uint256",
          "name": "_price",
          "type": "uint256"
        }
      ],
      "name": "updatePrice",
      "outputs": [],
      "stateMutability": "nonpayable",
      "type": "function"
    },
    {
      "inputs": [
        {
          "internalType": "string",
          "name": "_symbol",
          "type": "string"
        }
      ],
      "name": "getPrice",
      "outputs": [
        {
          "internalType": "uint256",
          "name": "",
          "type": "uint256"
        },
        {
          "internalType": "uint256",
          "name": "",
          "type": "uint256"
        }
      ],
      "stateMutability": "view",
      "type": "function",
      "constant": true
    }
  ],
  "bytecode": "0x608060405234801561001057600080fd5b50600061001b61006a565b600080546001600160a01b0319166001600160a01b0383169081178255604051929350917f8be0079c531659141344cd1fd0a4f28419497f9722a3daafe3b4186f6b6457e0908290a35061006e565b3390565b6107838061007d6000396000f3fe608060405234801561001057600080fd5b50600436106100885760003560e01c80638da5cb5b1161005b5780638da5cb5b146101b4578063b3ab15fb146101bc578063c3825f4b146101e2578063f2fde38b1461028857610088565b80634a432a461461008d578063524f3889146100ff578063570ca73514610188578063715018a6146101ac575b600080fd5b6100fd600480360360408110156100a357600080fd5b8101906020810181356401000000008111156100be57600080fd5b8201836020820111156100d057600080fd5b803590602001918460018302840111640100000000831117156100f257600080fd5b9193509150356102ae565b005b61016f6004803603602081101561011557600080fd5b81019060208101813564010000000081111561013057600080fd5b82018360208201111561014257600080fd5b8035906020019184600183028401116401000000008311171561016457600080fd5b5090925090506103f7565b6040805192835260208301919091528051918290030190f35b610190610457565b604080516001600160a01b039092168252519081900360200190f35b6100fd610466565b610190610524565b6100fd600480360360208110156101d257600080fd5b50356001600160a01b0316610533565b61016f600480360360208110156101f857600080fd5b81019060208101813564010000000081111561021357600080fd5b82018360208201111561022557600080fd5b8035906020019184600183028401116401000000008311171561024757600080fd5b91908080601f0160208091040260200160405190810160405280939291908181526020018383808284376000920191909152509295506105c9945050505050565b6100fd6004803603602081101561029e57600080fd5b50356001600160a01b03166105ed565b6001546001600160a01b031633146102f75760405162461bcd60e51b81526004018080602001828103825260228152602001806107066022913960400191505060405180910390fd5b7f893e765e54b1011b6b5fb52014d0209f3832503b8a953868bcea3b9829ff6cb9838360028686604051808383808284378083019250505092505050908152602001604051809103902060000154844260405180806020018581526020018481526020018381526020018281038252878782818152602001925080828437600083820152604051601f909101601f19169092018290039850909650505050505050a18060028484604051808383808284379190910194855250506040519283900360200183209390935550429150600290859085908083838082843791909101948552505060405192839003602001909220600101929092555050505050565b60008060028484604051808383808284379190910194855250506040519283900360200183205492600292508791508690808383808284378083019250505092505050908152602001604051809103902060010154915091509250929050565b6001546001600160a01b031681565b61046e610701565b6001600160a01b031661047f610524565b6001600160a01b0316146104da576040805162461bcd60e51b815260206004820181905260248201527f4f776e61626c653a2063616c6c6572206973206e6f7420746865206f776e6572604482015290519081900360640190fd5b600080546040516001600160a01b03909116907f8be0079c531659141344cd1fd0a4f28419497f9722a3daafe3b4186f6b6457e0908390a3600080546001600160a01b0319169055565b6000546001600160a01b031690565b61053b610701565b6001600160a01b031661054c610524565b6001600160a01b0316146105a7576040805162461bcd60e51b815260206004820181905260248201527f4f776e61626c653a2063616c6c6572206973206e6f7420746865206f776e6572604482015290519081900360640190fd5b600180546001600160a01b0319166001600160a01b0392909216919091179055565b80516020818301810180516002825292820191909301209152805460019091015482565b6105f5610701565b6001600160a01b0316610606610524565b6001600160a01b031614610661576040805162461bcd60e51b815260206004820181905260248201527f4f776e61626c653a2063616c6c6572206973206e6f7420746865206f776e6572604482015290519081900360640190fd5b6001600160a01b0381166106a65760405162461bcd60e51b81526004018080602001828103825260268152602001806107286026913960400191505060405180910390fd5b600080546040516001600160a01b03808516939216917f8be0079c531659141344cd1fd0a4f28419497f9722a3daafe3b4186f6b6457e091a3600080546001600160a01b0319166001600160a01b0392909216919091179055565b339056fe4f7261636c653a2043616c6c6572206973206e6f7420746865206f70657261746f724f776e61626c653a206e6577206f776e657220697320746865207a65726f2061646472657373a264697066735822122008e1ba71d3b6e6ac0ff232bcfd3690fc1cb4bfe399a51d0e7cd370ed734a288864736f6c634300060c0033",
  "immutableReferences": {},
  "source": "// SPDX-License-Identifier: MIT\npragma solidity ^0.6.12;\n\nimport \"@openzeppelin/contracts/access/Ownable.sol\";\n\ncontract Oracle is Ownable {\n\n    address public operator;\n\n    struct SymbolPrice {\n        uint256 price;\n        uint256 blockTimestampLast;\n    }\n\n    mapping(string => SymbolPrice) public prices;\n\n    event PricePosted(string symbol, uint256 oldPrice, uint256 newPrice, uint256 blockTimestampLast);\n\n    modifier onlyOperator() {\n        require(msg.sender == operator, \"Oracle: Caller is not the operator\");\n        _;\n    }\n\n    constructor() public {}\n\n    function setOperator(address _operator) external onlyOwner {\n        operator = _operator;\n    }\n\n    function updatePrice(string calldata _symbol, uint256 _price) external onlyOperator {\n        emit PricePosted(_symbol, prices[_symbol].price, _price, now);\n        prices[_symbol].price = _price;\n        prices[_symbol].blockTimestampLast = now;\n    }\n\n    function getPrice(string calldata _symbol) external view returns (uint256, uint256) {\n        return (prices[_symbol].price, prices[_symbol].blockTimestampLast);\n    }\n}",
  "sourcePath": "/Users/passenger/project/findora/oracle-contract/contracts/Oracle.sol",
  "compiler": {
    "name": "solc",
    "version": "0.6.12+commit.27d51765.Emscripten.clang"
  },
  "schemaVersion": "3.4.3",
  "updatedAt": "2021-11-05T02:47:20.627Z",
  "networkType": "ethereum",
  "devdoc": {
    "kind": "dev",
    "methods": {
      "owner()": {
        "details": "Returns the address of the current owner."
      },
      "renounceOwnership()": {
        "details": "Leaves the contract without owner. It will not be possible to call `onlyOwner` functions anymore. Can only be called by the current owner. NOTE: Renouncing ownership will leave the contract without an owner, thereby removing any functionality that is only available to the owner."
      },
      "transferOwnership(address)": {
        "details": "Transfers ownership of the contract to a new account (`newOwner`). Can only be called by the current owner."
      }
    },
    "version": 1
  },
  "userdoc": {
    "kind": "user",
    "methods": {},
    "version": 1
  }
}